:020000040000FA
:06000000A3EF06F0120060
:020006001200E6
:060008001AEF01F01200E6
:02000E00C250DE
:08001000020B01E0010E1200D9
:0600180067EF01F0120089
:02001E000100DF
:0C002000940D000080000000240000008F
:04002C00D39CD38A04
:10003000D388F28E0D0EC16E946A956A826A070E9D
:10004000966E0E0EE66E040EE66E9B0EE66ED3EC1A
:1000500005F0E552E552E55260DA910EE66E4AECA3
:1000600006F0E552FA0EE66EE6682EEC06F0E55272
:10007000E552010E00019C6F9D6B9E6F9F6BA2C0AD
:1000800008F0A3C009F0A0C00DF0A1C00EF0F2EC82
:1000900004F00001A1AF04D0046C051E000E05227F
:1000A00004C010F005C011F00450051001E0BED0EE
:1000B000870EE66E66EC06F0E552C8EC06F007EC3B
:1000C00000F00009FCE1BFEC06F0F3CF10F0F4CF34
:1000D00011F0126A136A11AE02D01268136810C0D0
:1000E00006F011C007F012C008F013C009F094C068
:1000F0000BF095C00CF096C00DF097C00EF09BEC85
:1001000005F002C084F003C085F004C086F005C08D
:1001100087F00C0E0B6E0C6A0D6A0E6A84C006F036
:1001200085C007F086C008F087C009F09BEC05F099
:1001300002C084F003C085F004C086F005C087F0DB
:100140000B68030E0C6E0D6A0E6A84C006F085C043
:1001500007F086C008F087C009F018EC05F006C06B
:1001600084F007C085F008C086F009C087F08F0EC4
:10017000E66E66EC06F0E552C8EC06F007EC00F01F
:100180000009FCE1BFEC06F0F3CF10F0F4CF11F062
:10019000126A136A11AE02D01268136810C006F01A
:1001A00011C007F012C008F013C009F098C00BF09E
:1001B00099C00CF09AC00DF09BC00EF09BEC05F0BE
:1001C00002C088F003C089F004C08AF005C08BF03B
:1001D0000C0E0B6E0C6A0D6A0E6A88C006F089C0A0
:1001E00007F08AC008F08BC009F09BEC05F002C054
:1001F00088F003C089F004C08AF005C08BF00B685A
:10020000030E0C6E0D6A0E6A88C006F089C007F0F6
:100210008AC008F08BC009F018EC05F006C088F021
:1002200007C089F008C08AF009C08BF084B227D7D4
:1002300072DA25D7DACFE4FFE2CFDAFFE9CFE4FFC5
:10024000EACFE4FFF6CFE4FFF7CFE4FFF5CFE4FF1A
:10025000F3CFE4FFF4CFE4FFFACFE4FF00EE00F0C9
:10026000100EE80403E3EECFE4FFFBD700EE10F03E
:10027000040EE80403E3EECFE4FFFBD7E652F2A45A
:1002800002D0F29475D8E55200EE13F0040EE804A3
:1002900003E3E5CFEDFFFBD700EE0FF0100EE8040F
:1002A00003E3E5CFEDFFFBD7E5CFFAFFE5CFF4FFA2
:1002B000E5CFF3FFE5CFF5FFE5CFF7FFE5CFF6FF9D
:1002C000E5CFEAFFE5CFE9FFE5CFDAFF1100D8CFB0
:1002D000E4FFE0CFE4FFE46EDACFE4FFE652E5525C
:1002E000E5CFDAFFE550E5CFE0FFE5CFD8FF10001E
:1002F000D9CFE6FFE1CFD9FFFE0EDB50060A0CE0B6
:10030000030A08E00C0A04E0030A08E1090E07D01A
:10031000050E05D0060E03D00A0E01D00A0EF36EAC
:10032000FE0EF3CFDBFFDB50E552E7CFD9FF120023
:10033000D9CFE6FFE1CFD9FFFE0EDB50060A0CE075
:10034000030A08E00C0A04E0030A08E1060E07D0DD
:100350000A0E05D0090E03D0050E01D00A0EF36E69
:10036000FE0EF3CFDBFFDB50E552E7CFD9FF1200E3
:10037000D9CFE6FFE1CFD9FFE652840EE96E000E39
:10038000EA6EEE5000018C5D106EEE508D59116ECC
:10039000EE508E59126EEE508F59136ED880E85081
:1003A000FF0A08E6D00E105CFF0E1158FF0E12581F
:1003B000FF0E13580DE280C0E6FF9ADFE552000100
:1003C000806F0C0E8C27000E8D238E238F2329D057
:1003D000840EE96E000EEA6EEE508C5D106EEE50EB
:1003E0008D59116EEE508E59126EEE508F59136E5C
:1003F000D890E850000A08E6300E105C000E115844
:10040000000E1258000E135810E380C0E6FF90DF74
:10041000E5520001806F0C0E8C5F000E8D5B8E5BD1
:100420008F5BA22BA3239C6B05D0A22B000EA323D2
:10043000010E9C6F9D6B880EE96E000EEA6EEE5009
:10044000905D106EEE509159116EEE509259126EF1
:10045000EE509359136ED880E850FF0A08E6D00E8C
:10046000105CFF0E1158FF0E1258FF0E13580DE2CC
:1004700081C0E6FF3DDFE5520001816F0C0E902741
:10048000000E91239223932329D0880EE96E000E4B
:10049000EA6EEE50905D106EEE509159116EEE5076
:1004A0009259126EEE509359136ED890E850000A8C
:1004B00008E6300E105C000E1158000E1258000EA7
:1004C000135810E381C0E6FF33DFE5520001816F6E
:1004D0000C0E905F000E915B925B935BA22BA323AB
:1004E0009E6B05D0A22B000EA323010E9E6F9F6B67
:1004F00080C0DFFFDF50826E81C0DFFFDF50836E80
:1005000082C0E6FF83C0E6FF2EEC06F0E552E5521E
:10051000E552E552E7CFD9FF1200D9CFE6FFE1CF90
:10052000D9FF080EE12684B0FED781A422D080C076
:10053000E6FFFEDEE5520001806F050EE66EB1ECCF
:1005400006F0E55280C010F0116A10BE116810C0AC
:10055000DEFF11C0DDFFDF50826E81C010F0116A36
:1005600010BE116810C0DEFF11C0DDFFDF50836ECA
:10057000DCD781A62ED080C0E6FFBADEE5520001AE
:10058000806F050EE66EB1EC06F0E55280C010F00B
:10059000116A10BE1168020E10C0DBFF030E11C0FD
:1005A000DBFF020EDB50826E81C010F0116A10BEBC
:1005B0001168020E10C0DBFF030E11C0DBFF020E3C
:1005C000DB50836E0001942B000E95239623972316
:1005D000D0D781A228D081C0E6FFAADEE552000173
:1005E000816F050EE66EB1EC06F0E55280C010F0AA
:1005F000116A10BE1168040E10C0DBFF050E11C099
:10060000DBFF040EDB50826E81C010F0116A10BE59
:100610001168040E10C0DBFF050E11C0DBFF040ED5
:10062000DB50836ED6D781A02ED081C0E6FF60DE7E
:10063000E5520001816F050EE66EB1EC06F0E55261
:1006400080C010F0116A10BE1168060E10C0DBFFEA
:10065000070E11C0DBFF060EDB50826E81C010F06A
:10066000116A10BE1168060E10C0DBFF070E11C024
:10067000DBFF060EDB50836E0001982B000E9923E2
:100680009A239B23D0D794C08CF095C08DF096C050
:100690008EF097C08FF00C0E0B6E0C6A0D6A0E6A0E
:1006A0008CC006F08DC007F08EC008F08FC009F036
:1006B0009BEC05F002C08CF003C08DF004C08EF0FE
:1006C00005C08FF098C090F099C091F09AC092F058
:1006D0009BC093F00C0E0B6E0C6A0D6A0E6A90C0F4
:1006E00006F091C007F092C008F093C009F09BECAF
:1006F00005F002C090F003C091F004C092F005C074
:1007000093F0080EE15C02E2E16AE552E16EE55227
:10071000E7CFD9FF120084A45DD198C088F099C0BA
:1007200089F09AC08AF09BC08BF0640E0B6E0C6A45
:100730000D6A0E6A88C006F089C007F08AC008F00A
:100740008BC009F09BEC05F002C088F003C089F073
:1007500004C08AF005C08BF00C0E0B6E0C6A0D6A9B
:100760000E6A88C006F089C007F08AC008F08BC006
:1007700009F09BEC05F002C088F003C089F004C0CA
:100780008AF005C08BF00B68030E0C6E0D6A0E6AC2
:1007900088C006F089C007F08AC008F08BC009F055
:1007A00018EC05F006C088F007C089F008C08AF090
:1007B00009C08BF00001010E9E1901E19F5103E079
:1007C0008450040BF7E198C084F099C085F09AC07A
:1007D00086F09BC087F0640E0B6E0C6A0D6A0E6A81
:1007E00084C006F085C007F086C008F087C009F015
:1007F0009BEC05F002C084F003C085F004C086F0D5
:1008000005C087F00C0E0B6E0C6A0D6A0E6A84C070
:1008100006F085C007F086C008F087C009F09BECA1
:1008200005F002C084F003C085F004C086F005C066
:1008300087F00B68030E0C6E0D6A0E6A84C006F01A
:1008400085C007F086C008F087C009F018EC05F0F5
:1008500006C084F007C085F008C086F009C087F0A4
:100860000001010E9C1901E19D5103E08450040B2D
:10087000F7E198C088F099C089F09AC08AF09BC0CF
:100880008BF0E80E0B6E030E0C6E0D6A0E6A88C0BC
:1008900006F089C007F08AC008F08BC009F09BEC15
:1008A00005F002C088F003C089F004C08AF005C0DA
:1008B0008BF00C0E0B6E0C6A0D6A0E6A88C006F087
:1008C00089C007F08AC008F08BC009F09BEC05F0E6
:1008D00002C088F003C089F004C08AF005C08BF024
:1008E0000B68030E0C6E0D6A0E6A88C006F089C094
:1008F00007F08AC008F08BC009F018EC05F006C0BC
:1009000088F007C089F008C08AF009C08BF00001A8
:10091000010E9E1901E19F5103E08450040BF7E1A1
:1009200098C084F099C085F09AC086F09BC087F08B
:10093000E80E0B6E030E0C6E0D6A0E6A84C006F094
:1009400085C007F086C008F087C009F09BEC05F071
:1009500002C084F003C085F004C086F005C087F0B3
:100960000C0E0B6E0C6A0D6A0E6A84C006F085C010
:1009700007F086C008F087C009F09BEC05F002C0C4
:1009800084F003C085F004C086F005C087F00B68D2
:10099000030E0C6E0D6A0E6A84C006F085C007F067
:1009A00086C008F087C009F018EC05F006C084F096
:1009B00007C085F008C086F009C087F00001010E6D
:1009C0009C1901E19D5101E1A6D68450040B01E17F
:1009D000A2D6F4D7FA0EE66EE6682EEC06F0E552E3
:0409E000E5521200CA
:0C09E400006A0EAEFBEF04F00D6C0E1E5E
:1009F000E86A0E22001E09AE03EF05F0086C091E1E
:100A0000E86A0922001E7DEC06F009BE13EF05F02E
:100A100000AE000C086C091EE86A0922046C051E71
:100A2000E86A0522000C00BE0AEF05F00188FF0C01
:100A3000006AE86A0EAE25EF05F00B6C0C1E0D1E69
:100A40000E1E0C220D220E22001E09AE30EF05F004
:100A5000066C071E081E091E072208220922001E16
:100A60000AEC06F009BE47EF05F000AE000C066C7C
:100A7000071E081E091EE86A072208220922026CC6
:100A8000031E041E051E032204220522000C00BEC4
:080A900037EF05F00188FF0CAF
:080A98001E0EF66E000EF76E53
:100AA000000EF86E00010900F550A96F0900F5501D
:100AB000AA6F03E1A96701D03DD00900F550A46FEA
:100AC0000900F550A56F0900F550A66F090009004F
:100AD000F550E96E0900F550EA6E090009000900B9
:100AE000F550A76F0900F550A86F09000900F6CF6F
:100AF000ABF0F7CFACF0F8CFADF0A4C0F6FFA5C0D7
:100B0000F7FFA6C0F8FF0001A75302E1A85307E0D2
:100B10000900F550EE6EA707F8E2A807F9D7ABC0B9
:100B2000F6FFACC0F7FFADC0F8FF0001A907000E4B
:060B3000AA5BBFD7120012
:0A0B360006500B02F3CF02F0F4CFDB
:100B400003F00C02F3500326000EF420046E06504E
:100B50000D02F3500426000EF420056E06500E021E
:100B6000F350052607500B02F3500326F4500422DD
:100B7000000E052207500C02F3500426F450052203
:100B800007500D02F350052608500B02F3500426BF
:100B9000F450052208500C02F350052609500B02B0
:060BA000F35005261200CF
:0A0BA600D9CFE6FFDACFE6FFE1CF7A
:100BB000D9FFE2CFDAFFC26AC06AFC0EDB407F0BCE
:100BC0003C0BC26EFC0EDB38F00B300B106EFB0ED4
:100BD000DB500F0B1010C16EFD0EDB50040DF350F7
:100BE000380B116EFD0EDB380F0B070B106EFD0E70
:100BF000DB50800B10101110C06EFC0EDBAE03D06A
:100C00009E9C9D8CF28CC280E552E5CFDAFFE7CF47
:040C1000D9FF1200F6
:0C0C1400056A046A036A026A200EE76E9B
:100C2000D8900636073608360936023603360436BB
:100C300005360B50025C0C5003580D5004580E50F2
:100C4000055809E30B50025E0C50035A0D50045A2C
:0C0C50000E50055A062AE72EE4D71200C9
:040C5C00D9CFE6FF07
:100C6000DACFE6FFE1CFD9FFE2CFDAFFE652E65274
:100C7000FC0EDBCFDEFFDBCFDDFF010EDB50D76EDE
:100C8000DF50D66EE552E552E552E5CFDAFFE7CF09
:040C9000D9FF120076
:0C0C9400D9CFE6FFDACFE6FFE1CFD9FFB1
:100CA000E2CFDAFFFD0EDB507F0BD56ED76AD66A36
:100CB000F294FD0EDBAE02D0F28A01D0F29AD58E0C
:0C0CC000E552E5CFDAFFE7CFD9FF1200C4
:040CCC00D9CFE6FF97
:100CD000DACFE6FFE1CFD9FFE2CFDAFFC30EC214CD
:100CE000106EFD0EDB407F0B3C0B1010C26EE55208
:0A0CF000E5CFDAFFE7CFD9FF1200CD
:060CFA00056A046A100EF9
:100D0000E76ED89008360936043605360D50045C77
:100D10000E50055805E30D50045E0E50055A082A82
:060D2000E72EF0D71200DF
:0A0D2600000EF36E00EE00F0060E62
:100D300001D81200EA6002D0EE6AFCD7F350E960F5
:060D40001200EE6AFCD770
:0A0D460015EE00F025EE00F0F86A4B
:100D5000019C4CEC05F003EC00F016EC00F0FBD726
:020D600012007F
:0E0D6200FF0EE350146E1B0E00D001D0200EC9
:0E0D7000E76EE72EFED7142EFAD700D0120041
:020D7E00C4505F
:100D8000136E126AC3501210F36E13C0F4FF1200F8
:040D9000C282120009
:0C0D94000A0A82FF0000000000000000BE
:100DA0000000000000000000000000000000000043
:080DB0000000000064000000D7
:020000040030CA
:0100010008F6
:0100020019E4
:010003001EDE
:010006008178
:00000001FF
