:020000040000FA
:06000000D3EF04F0120032
:020006001200E6
:06000800F5EF01F012000B
:02000E00C250DE
:08001000020B01E0010E1200D9
:0600180042EF02F01200AD
:02001E000100DF
:0C002000F4090000800000001E00000039
:04002C00D9CFE6FF43
:10003000E1CFD9FF080EE126D39CD38AD388F28E74
:100040000D0EC16E946A956A826A070E966E0E0E48
:10005000E66E040EE66E9B0EE66EE5EC03F0E552EE
:10006000E552E55284B0FED781A422D080C0E6FFDD
:100070003ADAE5520001806F050EE66EE1EC04F01D
:10008000E55280C010F0116A10BE116810C0DEFF8A
:1000900011C0DDFFDF50826E81C010F0116A10BE0A
:1000A000116810C0DEFF11C0DDFFDF50836EDCD7AA
:1000B00081A62ED080C0E6FFF6D9E5520001806F00
:1000C000050EE66EE1EC04F0E55280C010F0116A16
:1000D00010BE1168020E10C0DBFF030E11C0DBFF63
:1000E000020EDB50826E81C010F0116A10BE1168E2
:1000F000020E10C0DBFF030E11C0DBFF020EDB504F
:10010000836E0001942B000E952396239723D0D75E
:1001100081A228D081C0E6FFE6D9E5520001816FB7
:10012000050EE66EE1EC04F0E55280C010F0116AB5
:1001300010BE1168040E10C0DBFF050E11C0DBFFFE
:10014000040EDB50826E81C010F0116A10BE11687F
:10015000040E10C0DBFF050E11C0DBFF040EDB50E8
:10016000836ED6D781A02ED081C0E6FF9CD9E55200
:100170000001816F050EE66EE1EC04F0E55280C0EF
:1001800010F0116A10BE1168060E10C0DBFF070EDA
:1001900011C0DBFF060EDB50826E81C010F0116AC9
:1001A00010BE1168060E10C0DBFF070E11C0DBFF8A
:1001B000060EDB50836E0001982B000E99239A23C4
:1001C0009B23D0D794C08CF095C08DF096C08EF054
:1001D00097C08FF00C0E0B6E0C6A0D6A0E6A8CC005
:1001E00006F08DC007F08EC008F08FC009F0ADECAE
:1001F00003F002C08CF003C08DF004C08EF005C087
:100200008FF098C090F099C091F09AC092F09BC086
:1002100093F00C0E0B6E0C6A0D6A0E6A90C006F01D
:1002200091C007F092C008F093C009F0ADEC03F064
:1002300002C090F003C091F004C092F005C093F0AA
:10024000910EE66E90EC04F0E552FA0EE66EE6686A
:1002500074EC04F0E552E552010E00019C6F9D6BB9
:100260000001010E9C19FCE19D51FAE1870EE66E3A
:10027000ACEC04F0E552F8EC04F007EC00F00009F7
:10028000FCE1EFEC04F0F3CF10F0F4CF11F0126AC0
:10029000136A11AE02D01268136810C006F011C0C4
:1002A00007F012C008F013C009F094C00BF095C01D
:1002B0000CF096C00DF097C00EF0ADEC03F002C04C
:1002C00084F003C085F004C086F005C087F00C0EF2
:1002D0000B6E0C6A0D6A0E6A84C006F085C007F0CA
:1002E00086C008F087C009F0ADEC03F002C084F0CE
:1002F00003C085F004C086F005C087F00B68030ECC
:100300000C6E0D6A0E6A84C006F085C007F086C0C8
:1003100008F087C009F01CEC04F006C084F007C0A8
:1003200085F008C086F009C087F08F0EE66EACEC51
:1003300004F0E552F8EC04F007EC00F00009FCE1F1
:10034000EFEC04F0F3CF10F0F4CF11F0126A136A5F
:1003500011AE02D01268136810C006F011C007F089
:1003600012C008F013C009F098C00BF099C00CF04F
:100370009AC00DF09BC00EF0ADEC03F002C088F007
:1003800003C089F004C08AF005C08BF00C0E0B6E20
:100390000C6A0D6A0E6A88C006F089C007F08AC030
:1003A00008F08BC009F0ADEC03F002C088F003C088
:1003B00089F004C08AF005C08BF00B68030E0C6E48
:1003C0000D6A0E6A88C006F089C007F08AC008F07E
:1003D0008BC009F01CEC04F006C088F007C089F05F
:1003E00008C08AF009C08BF03BD7DACFE4FFE2CF38
:1003F000DAFFE9CFE4FFEACFE4FFF6CFE4FFF7CF7F
:10040000E4FFF5CFE4FFF3CFE4FFF4CFE4FFFACF4E
:10041000E4FF00EE00F0100EE80403E3EECFE4FF8B
:10042000FBD700EE10F0040EE80403E3EECFE4FF88
:10043000FBD7E652F2A402D0F29475D8E55200EE52
:1004400013F0040EE80403E3E5CFEDFFFBD700EE65
:100450000FF0100EE80403E3E5CFEDFFFBD7E5CF87
:10046000FAFFE5CFF4FFE5CFF3FFE5CFF5FFE5CFEA
:10047000F7FFE5CFF6FFE5CFEAFFE5CFE9FFE5CFF0
:10048000DAFF1100D8CFE4FFE0CFE4FFE46EDACF6B
:10049000E4FFE652E552E5CFDAFFE550E5CFE0FFB5
:1004A000E5CFD8FF1000D9CFE6FFE1CFD9FFFE0E90
:1004B000DB50060A0CE0030A08E00C0A04E0030A19
:1004C00008E1090E07D0050E05D0060E03D00A0E6E
:1004D00001D00A0EF36EFE0EF3CFDBFFDB50E552C8
:1004E000E7CFD9FF1200D9CFE6FFE1CFD9FFFE0E4B
:1004F000DB50060A0CE0030A08E00C0A04E0030AD9
:1005000008E1060E07D00A0E05D0090E03D0050E2D
:1005100001D00A0EF36EFE0EF3CFDBFFDB50E55287
:10052000E7CFD9FF1200D9CFE6FFE1CFD9FFE652DE
:10053000840EE96E000EEA6EEE5000018C5D106EC6
:10054000EE508D59116EEE508E59126EEE508F593D
:10055000136ED880E850FF0A08E6DC0E105CFF0E30
:100560001158FF0E1258FF0E13580DE280C0E6FF1F
:100570009ADFE5520001806F0C0E8C27000E8D2350
:100580008E238F2329D0840EE96E000EEA6EEE5082
:100590008C5D106EEE508D59116EEE508E59126EAC
:1005A000EE508F59136ED890E850000A08E6240EDA
:1005B000105C000E1158000E1258000E13580EE376
:1005C00080C0E6FF90DFE5520001806F0C0E8C5F6B
:1005D000000E8D5B8E5B8F5B9C6B02D0010E9C6F5F
:1005E0009D6B880EE96E000EEA6EEE50905D106E07
:1005F000EE509159116EEE509259126EEE50935981
:10060000136ED880E850FF0A08E6DC0E105CFF0E7F
:100610001158FF0E1258FF0E13580DE281C0E6FF6D
:1006200042DFE5520001816F0C0E9027000E9123EE
:100630009223932329D0880EE96E000EEA6EEE50C5
:10064000905D106EEE509159116EEE509259126EEF
:10065000EE509359136ED890E850000A08E6240E25
:10066000105C000E1158000E1258000E13580EE3C5
:1006700081C0E6FF38DFE5520001816F0C0E905F0C
:10068000000E915B925B935B9C6B02D0010E9C6FA2
:100690009D6B80C0DFFFDF50826E81C0DFFFDF50C7
:1006A000836E82C0E6FF83C0E6FF74EC04F0E5527F
:0C06B000E552E552E552E7CFD9FF1200F9
:0406BC001E0EF66EAA
:1006C000000EF76E000EF86E00010900F550A36FE2
:1006D0000900F550A46F03E1A36701D03DD00900E4
:1006E000F5509E6F0900F5509F6F0900F550A06FFF
:1006F00009000900F550E96E0900F550EA6E09009D
:1007000009000900F550A16F0900F550A26F09001A
:100710000900F6CFA5F0F7CFA6F0F8CFA7F09EC05E
:10072000F6FF9FC0F7FFA0C0F8FF0001A15302E150
:10073000A25307E00900F550EE6EA107F8E2A20708
:10074000F9D7A5C0F6FFA6C0F7FFA7C0F8FF0001C4
:0A075000A307000EA45BBFD7120040
:06075A0006500B02F3CF74
:1007600002F0F4CF03F00C02F3500326000EF42045
:10077000046E06500D02F3500426000EF420056EA0
:1007800006500E02F350052607500B02F3500326C5
:10079000F4500422000E052207500C02F3500426E8
:1007A000F450052207500D02F350052608500B02A5
:1007B000F3500426F450052208500C02F35005268D
:0A07C00009500B02F3500526120049
:0607CA00D9CFE6FFDACFF3
:1007D000E6FFE1CFD9FFE2CFDAFFC26AC06AFC0EC2
:1007E000DB407F0B3C0BC26EFC0EDB38F00B300B9A
:1007F000106EFB0EDB500F0B1010C16EFD0EDB50A8
:10080000040DF350380B116EFD0EDB380F0B070B88
:10081000106EFD0EDB50800B10101110C06EFC0E20
:10082000DBAE03D09E9C9D8CF28CC280E552E5CF5E
:08083000DAFFE7CFD9FF120047
:08083800006AE86A0EAE29EF28
:1008400004F00B6C0C1E0D1E0E1E0C220D220E222F
:10085000001E09AE34EF04F0066C071E081E091EC8
:10086000072208220922001E50EC04F009BE4BEFBB
:1008700004F000AE000C066C071E081E091EE86A94
:10088000072208220922026C031E041E051E0322F1
:1008900004220522000C00BE3BEF04F00188FF0C8F
:1008A000056A046A036A026A200EE76ED89006366B
:1008B00007360836093602360336043605360B503D
:1008C000025C0C5003580D5004580E50055809E3B3
:1008D0000B50025E0C50035A0D50045A0E50055A2C
:0808E000062AE72EE4D71200FE
:0808E800D9CFE6FFDACFE6FFED
:1008F000E1CFD9FFE2CFDAFFE652E652FC0EDBCFC2
:10090000DEFFDBCFDDFF010EDB50D76EDF50D66E92
:10091000E552E552E552E5CFDAFFE7CFD9FF120005
:10092000D9CFE6FFDACFE6FFE1CFD9FFE2CFDAFF9A
:10093000FD0EDB507F0BD56ED76AD66AF294FD0EA2
:10094000DBAE02D0F28A01D0F29AD58EE552E5CF25
:08095000DAFFE7CFD9FF120026
:08095800D9CFE6FFDACFE6FF7C
:10096000E1CFD9FFE2CFDAFFC30EC214106EFD0E45
:10097000DB407F0B3C0B1010C26EE552E5CFDAFF77
:06098000E7CFD9FF1200D1
:0A098600000EF36E00EE00F0060E06
:1009900001D81200EA6002D0EE6AFCD7F350E96099
:0609A0001200EE6AFCD714
:0A09A60015EE00F025EE00F0F86AEF
:1009B000019C5EEC03F003EC00F016EC00F0FBD7BA
:0209C000120023
:0E09C200FF0EE350146E1B0E00D001D0200E6D
:0E09D000E76EE72EFED7142EFAD700D01200E5
:0209DE00C45003
:1009E000136E126AC3501210F36E13C0F4FF12009C
:0409F000C2821200AD
:0C09F4000A0A0BFE0000000000000000DA
:100A000000000000000000000000000000000000E6
:020A10000000E4
:020000040030CA
:0100010008F6
:0100020019E4
:010003001EDE
:010006008178
:00000001FF
