:020000040000FA
:06000000B8EF02F012004F
:020006001200E6
:0600080090EF00F0120071
:02000E00C250DE
:08001000020B01E0010E1200D9
:0600180046EF01F01200AA
:02001E000100DF
:0C002000A2050000800000000C000000A1
:04002C00D39CD38A04
:10003000D388910EE66E5FEC02F0E552FA0EE66EA2
:10004000E66843EC02F0E552E552F28E0D0EC16E09
:10005000946A826A0E0EE66E040EE66E9B0EE66EE3
:10006000E6EC01F0E552E552E552870EE66E7BECD8
:1000700002F0E552CFEC02F007EC00F00009FCE1E1
:10008000C6EC02F0F3CF84F0F4CF85F00001340E1B
:100090008503F3CF85F0210E8403F3508527340EBA
:1000A0008403F3CF84F0F45085270D68030E0E6EA1
:1000B000F3CF08F085C009F01DEC02F008C084F011
:1000C00009C085F08F0EE66E7BEC02F0E552CFECB6
:1000D00002F007EC00F00009FCE1C6EC02F0F3CFFF
:1000E00086F0F4CF87F000014C0E8703F3CF87F042
:1000F000040E8603F35087274C0E8603F3CF86F059
:10010000F45087270D68030E0E6EF3CF08F087C0FA
:1001100009F01DEC02F008C086F009C087F0A5D7F1
:10012000DACFE4FFE2CFDAFFE9CFE4FFEACFE4FF82
:10013000F6CFE4FFF7CFE4FFF5CFE4FFF3CFE4FF22
:10014000F4CFE4FFFACFE4FF00EE00F0100EE80475
:1001500003E3EECFE4FFFBD700EE10F0040EE8045B
:1001600003E3EECFE4FFFBD7E652F2A45FD0F294B4
:1001700000018451885D146E89518555156EE834EF
:1001800010E214500008000E15540BE280C0E6FF88
:100190008ED8E5520001806F640E8827000E8923F7
:1001A00014D08451885D146E89518555156E0001F7
:1001B000800E15140AE080C0E6FF99D8E5520001D0
:1001C000806F640E885F000E895B000186518A5D36
:1001D000146E8B518755156EE83412E214500008E6
:1001E000000E15540DE281C0E6FF61D8E552000112
:1001F000E838F00B816F640E8A27000E8B2316D02F
:1002000086518A5D146E8B518755156E0001800EE4
:1002100015140CE081C0E6FF6AD8E5520001E83809
:10022000F00B816F640E8A5F000E8B5B00018051C2
:100230008111826E82C0E6FF83C0E6FF43EC02F0CC
:10024000E552E552E55200EE13F0040EE80403E334
:10025000E5CFEDFFFBD700EE0FF0100EE80403E34F
:10026000E5CFEDFFFBD7E5CFFAFFE5CFF4FFE5CF14
:10027000F3FFE5CFF5FFE5CFF7FFE5CFF6FFE5CFDD
:10028000EAFFE5CFE9FFE5CFDAFF1100D8CFE4FFC1
:10029000E0CFE4FFE46EDACFE4FFE652E552E5CFCB
:1002A000DAFFE550E5CFE0FFE5CFD8FF1000D9CF6A
:1002B000E6FFE1CFD9FFFE0EDB50060A0CE0030A91
:1002C00008E00C0A04E0030A08E1090E07D0050E55
:1002D00005D0060E03D00A0E01D00A0EF36EFE0EF4
:1002E000F3CFDBFFDB50E552E7CFD9FF1200D9CFC8
:1002F000E6FFE1CFD9FFFE0EDB50060A0CE0030A51
:1003000008E00C0A04E0030A08E1060E07D00A0E12
:1003100005D0090E03D0050E01D00A0EF36EFE0EB5
:0E032000F3CFDBFFDB50E552E7CFD9FF120031
:02032E001E0EA1
:10033000F66E000EF76E000EF86E00010900F55023
:10034000916F0900F550926F03E1916701D03DD0A4
:100350000900F5508C6F0900F5508D6F0900F550BC
:100360008E6F09000900F550E96E0900F550EA6E3C
:10037000090009000900F5508F6F0900F550906FD2
:1003800009000900F6CF93F0F7CF94F0F8CF95F07D
:100390008CC0F6FF8DC0F7FF8EC0F8FF00018F53B1
:1003A00002E1905307E00900F550EE6E8F07F8E286
:1003B0009007F9D793C0F6FF94C0F7FF95C0F8FFF8
:0C03C00000019107000E925BBFD71200F5
:0403CC00D9CFE6FFA0
:1003D000DACFE6FFE1CFD9FFE2CFDAFFC26AC06A27
:1003E000FC0EDB407F0B3C0BC26EFC0EDB38F00BCF
:1003F000300B106EFB0EDB500F0B1010C16EFD0E9C
:10040000DB50040DF350380B116EFD0EDB380F0B73
:10041000070B106EFD0EDB50800B10101110C06E1C
:10042000FC0EDBAE03D09E9C9D8CF28CC280E5520C
:0A043000E5CFDAFFE7CFD9FF120095
:06043A00006A0EAE26EF81
:1004400002F00D6C0E1EE86A0E22001E09AE2EEFA1
:1004500002F0086C091EE86A0922001E92EC02F004
:1004600009BE3EEF02F000AE000C086C091EE86AFF
:100470000922046C051EE86A0522000C00BE35EF57
:0604800002F00188FF0CF0
:0A048600D9CFE6FFDACFE6FFE1CFA1
:10049000D9FFE2CFDAFFE652E652FC0EDBCFDEFFF9
:1004A000DBCFDDFF010EDB50D76EDF50D66EE5529D
:0E04B000E552E552E5CFDAFFE7CFD9FF1200A3
:0204BE00D9CF94
:1004C000E6FFDACFE6FFE1CFD9FFE2CFDAFFFD0E9C
:1004D000DB507F0BD56ED76AD66AF294FD0EDBAE89
:1004E00002D0F28A01D0F29AD58EE552E5CFDAFF3A
:0604F000E7CFD9FF120066
:0A04F600D9CFE6FFDACFE6FFE1CF31
:10050000D9FFE2CFDAFFC30EC214106EFD0EDB403E
:100510007F0B3C0B1010C26EE552E5CFDAFFE7CF40
:04052000D9FF1200ED
:0C052400056A046A100EE76ED8900836D5
:100530000936043605360D50045C0E50055805E3A7
:100540000D50045E0E50055A082AE72EF0D712000F
:10055000000EF36E00EE00F0060E01D81200EA6005
:1005600002D0EE6AFCD7F350E9601200EE6AFCD7C5
:1005700015EE00F025EE00F0F86A019C97EC01F012
:0C05800003EC00F016EC00F0FBD71200BA
:04058C00C450136ED6
:0E059000126AC3501210F36E13C0F4FF120073
:02059E00C28217
:0205A000120047
:0C05A2000A0A64FF0000000000000000D6
:020000040030CA
:0100010008F6
:0100020019E4
:010003001EDE
:010006008178
:00000001FF
