:020000040000FA
:0600000097EF03F012006F
:020006001200E6
:06000800C5EF00F012003C
:02000E00C250DE
:08001000020B01E0010E1200D9
:06001800D1EF01F012001F
:02001E000100DF
:0C002000600700008000000014000000D9
:04002C00D39CD38A04
:10003000D388910EE66E54EC03F0E552FA0EE66EAC
:10004000E66838EC03F0E552E552F28E0D0EC16E13
:10005000946A956A826A0E0EE66E040EE66E9B0E38
:10006000E66EA9EC02F0E552E552E552870EE66E27
:1000700070EC03F0E552AEEC03F007EC00F0000981
:10008000FCE1A5EC03F0F3CF84F0F4CF85F00001A0
:10009000866B876B85AF02D086698769340E0B6EDD
:1000A000210E0C6E0D6A0E6A84C006F085C007F042
:1000B00086C008F087C009F071EC02F002C084F03D
:1000C00003C085F004C086F005C087F00B68030EFE
:1000D0000C6E0D6A0E6A84C006F085C007F086C0FB
:1000E00008F087C009F0E0EC02F006C084F007C019
:1000F00085F008C086F009C087F08F0EE66E70ECC0
:1001000003F0E552AEEC03F007EC00F00009FCE16F
:10011000A5EC03F0F3CF88F0F4CF89F000018A6BEF
:100120008B6B89AF02D08A698B69F80E0B6E2A0E31
:100130000C6E0D6A0E6A88C006F089C007F08AC08E
:1001400008F08BC009F071EC02F002C088F003C027
:1001500089F004C08AF005C08BF00B68030E0C6EAA
:100160000D6A0E6A88C006F089C007F08AC008F0E0
:100170008BC009F0E0EC02F006C088F007C089F0FF
:1001800008C08AF009C08BF071D7DACFE4FFE2CF64
:10019000DAFFE9CFE4FFEACFE4FFF6CFE4FFF7CFE1
:1001A000E4FFF5CFE4FFF3CFE4FFF4CFE4FFFACFB1
:1001B000E4FF00EE00F0100EE80403E3EECFE4FFEE
:1001C000FBD700EE14F0040EE80403E3EECFE4FFE7
:1001D000FBD7E652D9CFE6FFE1CFD9FFE652F2A432
:1001E000A8D0F294840EE96E000EEA6EEE50000183
:1001F0008C5D106EEE508D59116EEE508E59126E50
:10020000EE508F59136ED880E850FF0A08E6F40EBE
:10021000105CFF0E1158FF0E1258FF0E13580DE21E
:1002200080C0E6FFCFD8E5520001806F0C0E8C270E
:10023000000E8D238E238F2329D0840EE96E000EAD
:10024000EA6EEE508C5D106EEE508D59116EEE50D0
:100250008E59126EEE508F59136ED890E850000AE6
:1002600008E60C0E105C000E1158000E1258000E1D
:1002700013580CE380C0E6FFC5D8E5520001806F3B
:100280000C0E8C5F000E8D5B8E5B8F5B880EE96EB3
:10029000000EEA6EEE50905D106EEE509159116EA8
:1002A000EE509259126EEE509359136ED880E8506A
:1002B000FF0A08E6F40E105CFF0E1158FF0E1258EC
:1002C000FF0E13580DE281C0E6FF7CD8E552000115
:1002D000816F0C0E9027000E91239223932329D037
:1002E000880EE96E000EEA6EEE50905D106EEE50D4
:1002F0009159116EEE509259126EEE509359136E41
:10030000D890E850000A08E60C0E105C000E115858
:10031000000E1258000E13580CE381C0E6FF72D88D
:10032000E5520001816F0C0E905F000E915B925BB5
:10033000935B80C0DFFFDF50826E81C0DFFFDF5044
:10034000836E82C0E6FF83C0E6FF38EC03F0E5521F
:10035000E552E552E552E7CFD9FFE55200EE17F03E
:10036000040EE80403E3E5CFEDFFFBD700EE0FF04A
:10037000100EE80403E3E5CFEDFFFBD7E5CFFAFF6E
:10038000E5CFF4FFE5CFF3FFE5CFF5FFE5CFF7FFCE
:10039000E5CFF6FFE5CFEAFFE5CFE9FFE5CFDAFFEE
:1003A0001100D8CFE4FFE0CFE4FFE46EDACFE4FF42
:1003B000E652E552E5CFDAFFE550E5CFE0FFE5CFC5
:1003C000D8FF1000D9CFE6FFE1CFD9FFFE0EDB50FA
:1003D000060A0CE0030A08E00C0A04E0030A08E13C
:1003E000090E07D0050E05D0060E03D00A0E01D067
:1003F0000A0EF36EFE0EF3CFDBFFDB50E552E7CFC4
:10040000D9FF1200D9CFE6FFE1CFD9FFFE0EDB50B6
:10041000060A0CE0030A08E00C0A04E0030A08E1FB
:10042000060E07D00A0E05D0090E03D0050E01D026
:100430000A0EF36EFE0EF3CFDBFFDB50E552E7CF83
:04044000D9FF1200CE
:0C0444001E0EF66E000EF76E000EF86E35
:1004500000010900F550996F0900F5509A6F03E10A
:10046000996701D03DD00900F550946F0900F5500F
:10047000956F0900F550966F09000900F550E96E77
:100480000900F550EA6E090009000900F550976F60
:100490000900F550986F09000900F6CF9BF0F7CFDF
:1004A0009CF0F8CF9DF094C0F6FF95C0F7FF96C082
:1004B000F8FF0001975302E1985307E00900F55057
:1004C000EE6E9707F8E29807F9D79BC0F6FF9CC03D
:1004D000F7FF9DC0F8FF00019907000E9A5BBFD798
:0204E000120008
:0E04E20006500B02F3CF02F0F4CF03F00C0231
:1004F000F3500326000EF420046E06500D02F35054
:100500000426000EF420056E06500E02F350052658
:1005100007500B02F3500326F4500422000E05226C
:1005200007500C02F3500426F450052207500D0228
:10053000F350052608500B02F3500426F450052210
:1005400008500C02F350052609500B02F350052603
:02055000120097
:0E055200D9CFE6FFDACFE6FFE1CFD9FFE2CF47
:10056000DAFFC26AC06AFC0EDB407F0B3C0BC26E36
:10057000FC0EDB38F00B300B146EFB0EDB500F0B58
:100580001410C16EFD0EDB50040DF350380B156EC8
:10059000FD0EDB380F0B070B146EFD0EDB50800BCE
:1005A00014101510C06EFC0EDBAE03D09E9C9D8C0B
:1005B000F28CC280E552E5CFDAFFE7CFD9FF120017
:1005C000006AE86A0EAEEDEF02F00B6C0C1E0D1E19
:1005D0000E1E0C220D220E22001E09AEF8EF02F0B4
:1005E000066C071E081E091E072208220922001E8B
:1005F00014EC03F009BE0FEF03F000AE000C066C24
:10060000071E081E091EE86A072208220922026C3A
:10061000031E041E051E032204220522000C00BE38
:08062000FFEF02F00188FF0C5E
:08062800056A046A036A026A14
:10063000200EE76ED89006360736083609360236A1
:100640000336043605360B50025C0C5003580D502F
:1006500004580E50055809E30B50025E0C50035A23
:100660000D50045A0E50055A062AE72EE4D7120000
:10067000D9CFE6FFDACFE6FFE1CFD9FFE2CFDAFF4D
:10068000E652E652FC0EDBCFDEFFDBCFDDFF010ED4
:10069000DB50D76EDF50D66EE552E552E552E5CF1E
:0806A000DAFFE7CFD9FF1200D9
:0806A800D9CFE6FFDACFE6FF2F
:1006B000E1CFD9FFE2CFDAFFFD0EDB507F0BD56E25
:1006C000D76AD66AF294FD0EDBAE02D0F28A01D070
:1006D000F29AD58EE552E5CFDAFFE7CFD9FF1200C7
:1006E000D9CFE6FFDACFE6FFE1CFD9FFE2CFDAFFDD
:1006F000C30EC214146EFD0EDB407F0B3C0B1410B6
:0E070000C26EE552E5CFDAFFE7CFD9FF120057
:02070E00000EDB
:10071000F36E00EE00F0060E01D81200EA6002D07F
:0E072000EE6AFCD7F350E9601200EE6AFCD7D7
:02072E0015EEC6
:1007300000F025EE00F0F86A019C22EC02F003ECD8
:0A07400000F016EC00F0FBD71200E9
:06074A00C450176E166A90
:0C075000C3501610F36E17C0F4FF120027
:04075C00C282120043
:100760000A0A64FF00000000000000000000000012
:040770000000000085
:020000040030CA
:0100010008F6
:0100020019E4
:010003001EDE
:010006008178
:00000001FF
